{
  "_format": "hh-sol-artifact-1",
  "contractName": "RentalPayment",
  "sourceName": "contracts/RentalPayment.sol",
  "abi": [
    {
      "inputs": [
        {
          "internalType": "address",
          "name": "_mobifiWallet",
          "type": "address"
        },
        {
          "internalType": "address",
          "name": "_paymentToken",
          "type": "address"
        }
      ],
      "stateMutability": "nonpayable",
      "type": "constructor"
    },
    {
      "inputs": [],
      "name": "AccessControlBadConfirmation",
      "type": "error"
    },
    {
      "inputs": [
        {
          "internalType": "address",
          "name": "account",
          "type": "address"
        },
        {
          "internalType": "bytes32",
          "name": "neededRole",
          "type": "bytes32"
        }
      ],
      "name": "AccessControlUnauthorizedAccount",
      "type": "error"
    },
    {
      "anonymous": false,
      "inputs": [
        {
          "indexed": true,
          "internalType": "bytes32",
          "name": "role",
          "type": "bytes32"
        },
        {
          "indexed": true,
          "internalType": "bytes32",
          "name": "previousAdminRole",
          "type": "bytes32"
        },
        {
          "indexed": true,
          "internalType": "bytes32",
          "name": "newAdminRole",
          "type": "bytes32"
        }
      ],
      "name": "RoleAdminChanged",
      "type": "event"
    },
    {
      "anonymous": false,
      "inputs": [
        {
          "indexed": true,
          "internalType": "bytes32",
          "name": "role",
          "type": "bytes32"
        },
        {
          "indexed": true,
          "internalType": "address",
          "name": "account",
          "type": "address"
        },
        {
          "indexed": true,
          "internalType": "address",
          "name": "sender",
          "type": "address"
        }
      ],
      "name": "RoleGranted",
      "type": "event"
    },
    {
      "anonymous": false,
      "inputs": [
        {
          "indexed": true,
          "internalType": "bytes32",
          "name": "role",
          "type": "bytes32"
        },
        {
          "indexed": true,
          "internalType": "address",
          "name": "account",
          "type": "address"
        },
        {
          "indexed": true,
          "internalType": "address",
          "name": "sender",
          "type": "address"
        }
      ],
      "name": "RoleRevoked",
      "type": "event"
    },
    {
      "inputs": [],
      "name": "DEFAULT_ADMIN_ROLE",
      "outputs": [
        {
          "internalType": "bytes32",
          "name": "",
          "type": "bytes32"
        }
      ],
      "stateMutability": "view",
      "type": "function"
    },
    {
      "inputs": [
        {
          "internalType": "address",
          "name": "manager",
          "type": "address"
        }
      ],
      "name": "addManager",
      "outputs": [],
      "stateMutability": "nonpayable",
      "type": "function"
    },
    {
      "inputs": [
        {
          "internalType": "uint256",
          "name": "",
          "type": "uint256"
        }
      ],
      "name": "bookings",
      "outputs": [
        {
          "internalType": "address",
          "name": "renter",
          "type": "address"
        },
        {
          "internalType": "address payable",
          "name": "owner",
          "type": "address"
        },
        {
          "internalType": "uint256",
          "name": "amount",
          "type": "uint256"
        },
        {
          "internalType": "uint256",
          "name": "endTime",
          "type": "uint256"
        },
        {
          "internalType": "bool",
          "name": "disputed",
          "type": "bool"
        },
        {
          "internalType": "bool",
          "name": "paid",
          "type": "bool"
        }
      ],
      "stateMutability": "view",
      "type": "function"
    },
    {
      "inputs": [
        {
          "internalType": "uint256",
          "name": "_newPercentage",
          "type": "uint256"
        }
      ],
      "name": "changeCommissionPercentage",
      "outputs": [],
      "stateMutability": "nonpayable",
      "type": "function"
    },
    {
      "inputs": [
        {
          "internalType": "address",
          "name": "_newMobifiWallet",
          "type": "address"
        }
      ],
      "name": "changeMobifiWallet",
      "outputs": [],
      "stateMutability": "nonpayable",
      "type": "function"
    },
    {
      "inputs": [],
      "name": "commissionPercentage",
      "outputs": [
        {
          "internalType": "uint256",
          "name": "",
          "type": "uint256"
        }
      ],
      "stateMutability": "view",
      "type": "function"
    },
    {
      "inputs": [
        {
          "internalType": "uint256",
          "name": "bookingId",
          "type": "uint256"
        },
        {
          "internalType": "address payable",
          "name": "_owner",
          "type": "address"
        },
        {
          "internalType": "uint256",
          "name": "_amount",
          "type": "uint256"
        },
        {
          "internalType": "uint256",
          "name": "_endTime",
          "type": "uint256"
        }
      ],
      "name": "createBooking",
      "outputs": [],
      "stateMutability": "nonpayable",
      "type": "function"
    },
    {
      "inputs": [
        {
          "internalType": "bytes32",
          "name": "role",
          "type": "bytes32"
        }
      ],
      "name": "getRoleAdmin",
      "outputs": [
        {
          "internalType": "bytes32",
          "name": "",
          "type": "bytes32"
        }
      ],
      "stateMutability": "view",
      "type": "function"
    },
    {
      "inputs": [
        {
          "internalType": "bytes32",
          "name": "role",
          "type": "bytes32"
        },
        {
          "internalType": "address",
          "name": "account",
          "type": "address"
        }
      ],
      "name": "grantRole",
      "outputs": [],
      "stateMutability": "nonpayable",
      "type": "function"
    },
    {
      "inputs": [
        {
          "internalType": "bytes32",
          "name": "role",
          "type": "bytes32"
        },
        {
          "internalType": "address",
          "name": "account",
          "type": "address"
        }
      ],
      "name": "hasRole",
      "outputs": [
        {
          "internalType": "bool",
          "name": "",
          "type": "bool"
        }
      ],
      "stateMutability": "view",
      "type": "function"
    },
    {
      "inputs": [],
      "name": "mobifiWallet",
      "outputs": [
        {
          "internalType": "address",
          "name": "",
          "type": "address"
        }
      ],
      "stateMutability": "view",
      "type": "function"
    },
    {
      "inputs": [],
      "name": "paymentToken",
      "outputs": [
        {
          "internalType": "contract IERC20",
          "name": "",
          "type": "address"
        }
      ],
      "stateMutability": "view",
      "type": "function"
    },
    {
      "inputs": [
        {
          "internalType": "uint256",
          "name": "_bookingId",
          "type": "uint256"
        }
      ],
      "name": "raiseDispute",
      "outputs": [],
      "stateMutability": "nonpayable",
      "type": "function"
    },
    {
      "inputs": [],
      "name": "releasePayment",
      "outputs": [],
      "stateMutability": "nonpayable",
      "type": "function"
    },
    {
      "inputs": [
        {
          "internalType": "address",
          "name": "manager",
          "type": "address"
        }
      ],
      "name": "removeManager",
      "outputs": [],
      "stateMutability": "nonpayable",
      "type": "function"
    },
    {
      "inputs": [
        {
          "internalType": "bytes32",
          "name": "role",
          "type": "bytes32"
        },
        {
          "internalType": "address",
          "name": "callerConfirmation",
          "type": "address"
        }
      ],
      "name": "renounceRole",
      "outputs": [],
      "stateMutability": "nonpayable",
      "type": "function"
    },
    {
      "inputs": [
        {
          "internalType": "uint256",
          "name": "_bookingId",
          "type": "uint256"
        },
        {
          "internalType": "bool",
          "name": "favorRenter",
          "type": "bool"
        }
      ],
      "name": "resolveDispute",
      "outputs": [],
      "stateMutability": "nonpayable",
      "type": "function"
    },
    {
      "inputs": [
        {
          "internalType": "bytes32",
          "name": "role",
          "type": "bytes32"
        },
        {
          "internalType": "address",
          "name": "account",
          "type": "address"
        }
      ],
      "name": "revokeRole",
      "outputs": [],
      "stateMutability": "nonpayable",
      "type": "function"
    },
    {
      "inputs": [
        {
          "internalType": "bytes4",
          "name": "interfaceId",
          "type": "bytes4"
        }
      ],
      "name": "supportsInterface",
      "outputs": [
        {
          "internalType": "bool",
          "name": "",
          "type": "bool"
        }
      ],
      "stateMutability": "view",
      "type": "function"
    }
  ],
  "bytecode": "0x608060405260056002553480156200001657600080fd5b50604051620027e2380380620027e283398181016040528101906200003c9190620002bb565b81600160006101000a81548173ffffffffffffffffffffffffffffffffffffffff021916908373ffffffffffffffffffffffffffffffffffffffff16021790555080600360006101000a81548173ffffffffffffffffffffffffffffffffffffffff021916908373ffffffffffffffffffffffffffffffffffffffff160217905550620000d36000801b33620000dc60201b60201c565b50505062000302565b6000620000f08383620001df60201b60201c565b620001d457600160008085815260200190815260200160002060000160008473ffffffffffffffffffffffffffffffffffffffff1673ffffffffffffffffffffffffffffffffffffffff16815260200190815260200160002060006101000a81548160ff021916908315150217905550620001706200024960201b60201c565b73ffffffffffffffffffffffffffffffffffffffff168273ffffffffffffffffffffffffffffffffffffffff16847f2f8788117e7eff1d82e926ec794901d17c78024a50270940304540a733656f0d60405160405180910390a460019050620001d9565b600090505b92915050565b600080600084815260200190815260200160002060000160008373ffffffffffffffffffffffffffffffffffffffff1673ffffffffffffffffffffffffffffffffffffffff16815260200190815260200160002060009054906101000a900460ff16905092915050565b600033905090565b600080fd5b600073ffffffffffffffffffffffffffffffffffffffff82169050919050565b6000620002838262000256565b9050919050565b620002958162000276565b8114620002a157600080fd5b50565b600081519050620002b5816200028a565b92915050565b60008060408385031215620002d557620002d462000251565b5b6000620002e585828601620002a4565b9250506020620002f885828601620002a4565b9150509250929050565b6124d080620003126000396000f3fe608060405234801561001057600080fd5b50600436106101215760003560e01c80636374bd27116100ad578063b5991fa111610071578063b5991fa114610309578063d065c74014610325578063d116c8c414610341578063d547741f1461034b578063d575fe641461036757610121565b80636374bd271461026557806391d1485414610283578063a217fddf146102b3578063a5c1674e146102d1578063ac18de43146102ed57610121565b80632d06177a116100f45780632d06177a146101d75780632f2ff15d146101f35780633013ce291461020f57806334b25ee21461022d57806336568abe1461024957610121565b806301ffc9a7146101265780631dab301e14610156578063227488821461018b578063248a9ca3146101a7575b600080fd5b610140600480360381019061013b91906117aa565b610385565b60405161014d91906117f2565b60405180910390f35b610170600480360381019061016b9190611843565b6103ff565b604051610182969594939291906118e1565b60405180910390f35b6101a560048036038101906101a0919061196e565b610495565b005b6101c160048036038101906101bc9190611a0b565b610952565b6040516101ce9190611a47565b60405180910390f35b6101f160048036038101906101ec9190611a8e565b610971565b005b61020d60048036038101906102089190611abb565b6109ea565b005b610217610a0c565b6040516102249190611b5a565b60405180910390f35b61024760048036038101906102429190611ba1565b610a32565b005b610263600480360381019061025e9190611abb565b610c64565b005b61026d610cdf565b60405161027a9190611be1565b60405180910390f35b61029d60048036038101906102989190611abb565b610d05565b6040516102aa91906117f2565b60405180910390f35b6102bb610d6f565b6040516102c89190611a47565b60405180910390f35b6102eb60048036038101906102e69190611843565b610d76565b005b61030760048036038101906103029190611a8e565b610f41565b005b610323600480360381019061031e9190611843565b610fba565b005b61033f600480360381019061033a9190611a8e565b611054565b005b6103496110e4565b005b61036560048036038101906103609190611abb565b611401565b005b61036f611423565b60405161037c9190611bfc565b60405180910390f35b60007f7965db0b000000000000000000000000000000000000000000000000000000007bffffffffffffffffffffffffffffffffffffffffffffffffffffffff1916827bffffffffffffffffffffffffffffffffffffffffffffffffffffffff191614806103f857506103f782611429565b5b9050919050565b60046020528060005260406000206000915090508060000160009054906101000a900473ffffffffffffffffffffffffffffffffffffffff16908060010160009054906101000a900473ffffffffffffffffffffffffffffffffffffffff16908060020154908060030154908060040160009054906101000a900460ff16908060040160019054906101000a900460ff16905086565b600082116104d8576040517f08c379a00000000000000000000000000000000000000000000000000000000081526004016104cf90611c74565b60405180910390fd5b600073ffffffffffffffffffffffffffffffffffffffff166004600086815260200190815260200160002060000160009054906101000a900473ffffffffffffffffffffffffffffffffffffffff1673ffffffffffffffffffffffffffffffffffffffff161461057d576040517f08c379a000000000000000000000000000000000000000000000000000000000815260040161057490611ce0565b60405180910390fd5b600060646002548461058f9190611d2f565b6105999190611da0565b9050600081846105a99190611dd1565b90506040518060c001604052803373ffffffffffffffffffffffffffffffffffffffff1681526020018673ffffffffffffffffffffffffffffffffffffffff168152602001828152602001848152602001600015158152602001600015158152506004600088815260200190815260200160002060008201518160000160006101000a81548173ffffffffffffffffffffffffffffffffffffffff021916908373ffffffffffffffffffffffffffffffffffffffff16021790555060208201518160010160006101000a81548173ffffffffffffffffffffffffffffffffffffffff021916908373ffffffffffffffffffffffffffffffffffffffff160217905550604082015181600201556060820151816003015560808201518160040160006101000a81548160ff02191690831515021790555060a08201518160040160016101000a81548160ff021916908315150217905550905050600560008673ffffffffffffffffffffffffffffffffffffffff1673ffffffffffffffffffffffffffffffffffffffff168152602001908152602001600020869080600181540180825580915050600190039060005260206000200160009091909190915055600360009054906101000a900473ffffffffffffffffffffffffffffffffffffffff1673ffffffffffffffffffffffffffffffffffffffff166323b872dd3330876040518463ffffffff1660e01b81526004016107c793929190611e05565b6020604051808303816000875af11580156107e6573d6000803e3d6000fd5b505050506040513d601f19601f8201168201806040525081019061080a9190611e51565b610849576040517f08c379a000000000000000000000000000000000000000000000000000000000815260040161084090611eca565b60405180910390fd5b600360009054906101000a900473ffffffffffffffffffffffffffffffffffffffff1673ffffffffffffffffffffffffffffffffffffffff1663a9059cbb600160009054906101000a900473ffffffffffffffffffffffffffffffffffffffff16846040518363ffffffff1660e01b81526004016108c8929190611eea565b6020604051808303816000875af11580156108e7573d6000803e3d6000fd5b505050506040513d601f19601f8201168201806040525081019061090b9190611e51565b61094a576040517f08c379a000000000000000000000000000000000000000000000000000000000815260040161094190611f5f565b60405180910390fd5b505050505050565b6000806000838152602001908152602001600020600101549050919050565b61097e6000801b33610d05565b6109bd576040517f08c379a00000000000000000000000000000000000000000000000000000000081526004016109b490611fcb565b60405180910390fd5b6109e77f241ecf16d79d0f8dbfb92cbc07fe17840425976cf0667f022fe9877caa831b08826109ea565b50565b6109f382610952565b6109fc81611493565b610a0683836114a7565b50505050565b600360009054906101000a900473ffffffffffffffffffffffffffffffffffffffff1681565b610a5c7f241ecf16d79d0f8dbfb92cbc07fe17840425976cf0667f022fe9877caa831b0833610d05565b80610a705750610a6f6000801b33610d05565b5b610aaf576040517f08c379a0000000000000000000000000000000000000000000000000000000008152600401610aa690612037565b60405180910390fd5b60006004600084815260200190815260200160002090508060040160009054906101000a900460ff16610b17576040517f08c379a0000000000000000000000000000000000000000000000000000000008152600401610b0e906120a3565b60405180910390fd5b8115610c4257600360009054906101000a900473ffffffffffffffffffffffffffffffffffffffff1673ffffffffffffffffffffffffffffffffffffffff1663a9059cbb8260000160009054906101000a900473ffffffffffffffffffffffffffffffffffffffff1683600201546040518363ffffffff1660e01b8152600401610ba2929190611eea565b6020604051808303816000875af1158015610bc1573d6000803e3d6000fd5b505050506040513d601f19601f82011682018060405250810190610be59190611e51565b610c24576040517f08c379a0000000000000000000000000000000000000000000000000000000008152600401610c1b9061210f565b60405180910390fd5b60018160040160016101000a81548160ff0219169083151502179055505b60008160040160006101000a81548160ff021916908315150217905550505050565b610c6c611598565b73ffffffffffffffffffffffffffffffffffffffff168173ffffffffffffffffffffffffffffffffffffffff1614610cd0576040517f6697b23200000000000000000000000000000000000000000000000000000000815260040160405180910390fd5b610cda82826115a0565b505050565b600160009054906101000a900473ffffffffffffffffffffffffffffffffffffffff1681565b600080600084815260200190815260200160002060000160008373ffffffffffffffffffffffffffffffffffffffff1673ffffffffffffffffffffffffffffffffffffffff16815260200190815260200160002060009054906101000a900460ff16905092915050565b6000801b81565b60006004600083815260200190815260200160002090508060000160009054906101000a900473ffffffffffffffffffffffffffffffffffffffff1673ffffffffffffffffffffffffffffffffffffffff163373ffffffffffffffffffffffffffffffffffffffff161480610e3a57508060010160009054906101000a900473ffffffffffffffffffffffffffffffffffffffff1673ffffffffffffffffffffffffffffffffffffffff163373ffffffffffffffffffffffffffffffffffffffff16145b610e79576040517f08c379a0000000000000000000000000000000000000000000000000000000008152600401610e70906121a1565b60405180910390fd5b62093a808160030154610e8c91906121c1565b421115610ece576040517f08c379a0000000000000000000000000000000000000000000000000000000008152600401610ec590612241565b60405180910390fd5b8060040160019054906101000a900460ff1615610f20576040517f08c379a0000000000000000000000000000000000000000000000000000000008152600401610f17906122ad565b60405180910390fd5b60018160040160006101000a81548160ff0219169083151502179055505050565b610f4e6000801b33610d05565b610f8d576040517f08c379a0000000000000000000000000000000000000000000000000000000008152600401610f8490611fcb565b60405180910390fd5b610fb77f241ecf16d79d0f8dbfb92cbc07fe17840425976cf0667f022fe9877caa831b0882611401565b50565b610fc76000801b33610d05565b611006576040517f08c379a0000000000000000000000000000000000000000000000000000000008152600401610ffd90611fcb565b60405180910390fd5b606481111561104a576040517f08c379a00000000000000000000000000000000000000000000000000000000081526004016110419061233f565b60405180910390fd5b8060028190555050565b6110616000801b33610d05565b6110a0576040517f08c379a000000000000000000000000000000000000000000000000000000000815260040161109790611fcb565b60405180910390fd5b80600160006101000a81548173ffffffffffffffffffffffffffffffffffffffff021916908373ffffffffffffffffffffffffffffffffffffffff16021790555050565b600080600560003373ffffffffffffffffffffffffffffffffffffffff1673ffffffffffffffffffffffffffffffffffffffff16815260200190815260200160002090506000818054905067ffffffffffffffff8111156111485761114761235f565b5b6040519080825280602002602001820160405280156111765781602001602082028036833780820191505090505b5090506000805b838054905081101561128457600084828154811061119e5761119d61238e565b5b90600052602060002001549050600060046000838152602001908152602001600020905062093a8081600301546111d591906121c1565b421180156111f257508060040160009054906101000a900460ff16155b801561120d57508060040160019054906101000a900460ff16155b156112465780600201548761122291906121c1565b965060018160040160016101000a81548160ff021916908315150217905550611275565b8185858151811061125a5761125961238e565b5b6020026020010181815250508380611271906123bd565b9450505b5050808060010191505061117d565b5081600560003373ffffffffffffffffffffffffffffffffffffffff1673ffffffffffffffffffffffffffffffffffffffff16815260200190815260200160002090805190602001906112d89291906116e3565b506000841161131c576040517f08c379a000000000000000000000000000000000000000000000000000000000815260040161131390612451565b60405180910390fd5b600360009054906101000a900473ffffffffffffffffffffffffffffffffffffffff1673ffffffffffffffffffffffffffffffffffffffff1663a9059cbb33866040518363ffffffff1660e01b8152600401611379929190611eea565b6020604051808303816000875af1158015611398573d6000803e3d6000fd5b505050506040513d601f19601f820116820180604052508101906113bc9190611e51565b6113fb576040517f08c379a00000000000000000000000000000000000000000000000000000000081526004016113f290611eca565b60405180910390fd5b50505050565b61140a82610952565b61141381611493565b61141d83836115a0565b50505050565b60025481565b60007f01ffc9a7000000000000000000000000000000000000000000000000000000007bffffffffffffffffffffffffffffffffffffffffffffffffffffffff1916827bffffffffffffffffffffffffffffffffffffffffffffffffffffffff1916149050919050565b6114a48161149f611598565b611692565b50565b60006114b38383610d05565b61158d57600160008085815260200190815260200160002060000160008473ffffffffffffffffffffffffffffffffffffffff1673ffffffffffffffffffffffffffffffffffffffff16815260200190815260200160002060006101000a81548160ff02191690831515021790555061152a611598565b73ffffffffffffffffffffffffffffffffffffffff168273ffffffffffffffffffffffffffffffffffffffff16847f2f8788117e7eff1d82e926ec794901d17c78024a50270940304540a733656f0d60405160405180910390a460019050611592565b600090505b92915050565b600033905090565b60006115ac8383610d05565b1561168757600080600085815260200190815260200160002060000160008473ffffffffffffffffffffffffffffffffffffffff1673ffffffffffffffffffffffffffffffffffffffff16815260200190815260200160002060006101000a81548160ff021916908315150217905550611624611598565b73ffffffffffffffffffffffffffffffffffffffff168273ffffffffffffffffffffffffffffffffffffffff16847ff6391f5c32d9c69d2a47ea670b442974b53935d1edc7fd64eb21e047a839171b60405160405180910390a46001905061168c565b600090505b92915050565b61169c8282610d05565b6116df5780826040517fe2517d3f0000000000000000000000000000000000000000000000000000000081526004016116d6929190612471565b60405180910390fd5b5050565b82805482825590600052602060002090810192821561171f579160200282015b8281111561171e578251825591602001919060010190611703565b5b50905061172c9190611730565b5090565b5b80821115611749576000816000905550600101611731565b5090565b600080fd5b60007fffffffff0000000000000000000000000000000000000000000000000000000082169050919050565b61178781611752565b811461179257600080fd5b50565b6000813590506117a48161177e565b92915050565b6000602082840312156117c0576117bf61174d565b5b60006117ce84828501611795565b91505092915050565b60008115159050919050565b6117ec816117d7565b82525050565b600060208201905061180760008301846117e3565b92915050565b6000819050919050565b6118208161180d565b811461182b57600080fd5b50565b60008135905061183d81611817565b92915050565b6000602082840312156118595761185861174d565b5b60006118678482850161182e565b91505092915050565b600073ffffffffffffffffffffffffffffffffffffffff82169050919050565b600061189b82611870565b9050919050565b6118ab81611890565b82525050565b60006118bc82611870565b9050919050565b6118cc816118b1565b82525050565b6118db8161180d565b82525050565b600060c0820190506118f660008301896118a2565b61190360208301886118c3565b61191060408301876118d2565b61191d60608301866118d2565b61192a60808301856117e3565b61193760a08301846117e3565b979650505050505050565b61194b816118b1565b811461195657600080fd5b50565b60008135905061196881611942565b92915050565b600080600080608085870312156119885761198761174d565b5b60006119968782880161182e565b94505060206119a787828801611959565b93505060406119b88782880161182e565b92505060606119c98782880161182e565b91505092959194509250565b6000819050919050565b6119e8816119d5565b81146119f357600080fd5b50565b600081359050611a05816119df565b92915050565b600060208284031215611a2157611a2061174d565b5b6000611a2f848285016119f6565b91505092915050565b611a41816119d5565b82525050565b6000602082019050611a5c6000830184611a38565b92915050565b611a6b81611890565b8114611a7657600080fd5b50565b600081359050611a8881611a62565b92915050565b600060208284031215611aa457611aa361174d565b5b6000611ab284828501611a79565b91505092915050565b60008060408385031215611ad257611ad161174d565b5b6000611ae0858286016119f6565b9250506020611af185828601611a79565b9150509250929050565b6000819050919050565b6000611b20611b1b611b1684611870565b611afb565b611870565b9050919050565b6000611b3282611b05565b9050919050565b6000611b4482611b27565b9050919050565b611b5481611b39565b82525050565b6000602082019050611b6f6000830184611b4b565b92915050565b611b7e816117d7565b8114611b8957600080fd5b50565b600081359050611b9b81611b75565b92915050565b60008060408385031215611bb857611bb761174d565b5b6000611bc68582860161182e565b9250506020611bd785828601611b8c565b9150509250929050565b6000602082019050611bf660008301846118a2565b92915050565b6000602082019050611c1160008301846118d2565b92915050565b600082825260208201905092915050565b7f5061796d656e74206d7573742062652067726561746572207468616e20300000600082015250565b6000611c5e601e83611c17565b9150611c6982611c28565b602082019050919050565b60006020820190508181036000830152611c8d81611c51565b9050919050565b7f426f6f6b696e67204944206d75737420626520756e6971756500000000000000600082015250565b6000611cca601983611c17565b9150611cd582611c94565b602082019050919050565b60006020820190508181036000830152611cf981611cbd565b9050919050565b7f4e487b7100000000000000000000000000000000000000000000000000000000600052601160045260246000fd5b6000611d3a8261180d565b9150611d458361180d565b9250828202611d538161180d565b91508282048414831517611d6a57611d69611d00565b5b5092915050565b7f4e487b7100000000000000000000000000000000000000000000000000000000600052601260045260246000fd5b6000611dab8261180d565b9150611db68361180d565b925082611dc657611dc5611d71565b5b828204905092915050565b6000611ddc8261180d565b9150611de78361180d565b9250828203905081811115611dff57611dfe611d00565b5b92915050565b6000606082019050611e1a60008301866118a2565b611e2760208301856118a2565b611e3460408301846118d2565b949350505050565b600081519050611e4b81611b75565b92915050565b600060208284031215611e6757611e6661174d565b5b6000611e7584828501611e3c565b91505092915050565b7f5472616e73666572206661696c65640000000000000000000000000000000000600082015250565b6000611eb4600f83611c17565b9150611ebf82611e7e565b602082019050919050565b60006020820190508181036000830152611ee381611ea7565b9050919050565b6000604082019050611eff60008301856118a2565b611f0c60208301846118d2565b9392505050565b7f436f6d6d697373696f6e207472616e73666572206661696c6564000000000000600082015250565b6000611f49601a83611c17565b9150611f5482611f13565b602082019050919050565b60006020820190508181036000830152611f7881611f3c565b9050919050565b7f43616c6c6572206973206e6f7420616e2061646d696e00000000000000000000600082015250565b6000611fb5601683611c17565b9150611fc082611f7f565b602082019050919050565b60006020820190508181036000830152611fe481611fa8565b9050919050565b7f43616c6c6572206973206e6f742061206d616e61676572206f722061646d696e600082015250565b6000612021602083611c17565b915061202c82611feb565b602082019050919050565b6000602082019050818103600083015261205081612014565b9050919050565b7f4e6f206469737075746520726169736564000000000000000000000000000000600082015250565b600061208d601183611c17565b915061209882612057565b602082019050919050565b600060208201905081810360008301526120bc81612080565b9050919050565b7f5472616e7366657220746f2072656e746572206661696c656400000000000000600082015250565b60006120f9601983611c17565b9150612104826120c3565b602082019050919050565b60006020820190508181036000830152612128816120ec565b9050919050565b7f4e6f7420617574686f72697a656420746f20726169736520612064697370757460008201527f6500000000000000000000000000000000000000000000000000000000000000602082015250565b600061218b602183611c17565b91506121968261212f565b604082019050919050565b600060208201905081810360008301526121ba8161217e565b9050919050565b60006121cc8261180d565b91506121d78361180d565b92508282019050808211156121ef576121ee611d00565b5b92915050565b7f4469737075746520706572696f642068617320656e6465640000000000000000600082015250565b600061222b601883611c17565b9150612236826121f5565b602082019050919050565b6000602082019050818103600083015261225a8161221e565b9050919050565b7f5061796d656e7420616c72656164792072656c65617365640000000000000000600082015250565b6000612297601883611c17565b91506122a282612261565b602082019050919050565b600060208201905081810360008301526122c68161228a565b9050919050565b7f436f6d6d697373696f6e2070657263656e746167652063616e6e6f742065786360008201527f6565642031303000000000000000000000000000000000000000000000000000602082015250565b6000612329602783611c17565b9150612334826122cd565b604082019050919050565b600060208201905081810360008301526123588161231c565b9050919050565b7f4e487b7100000000000000000000000000000000000000000000000000000000600052604160045260246000fd5b7f4e487b7100000000000000000000000000000000000000000000000000000000600052603260045260246000fd5b60006123c88261180d565b91507fffffffffffffffffffffffffffffffffffffffffffffffffffffffffffffffff82036123fa576123f9611d00565b5b600182019050919050565b7f4e6f207061796d656e7420617661696c61626c6520746f2072656c6561736500600082015250565b600061243b601f83611c17565b915061244682612405565b602082019050919050565b6000602082019050818103600083015261246a8161242e565b9050919050565b600060408201905061248660008301856118a2565b6124936020830184611a38565b939250505056fea2646970667358221220998ad0f935a0b4a830b7b2467426d85801d1170d0e9010bd117345e277e55ed664736f6c63430008180033",
  "linkReferences": {},
  "deployedLinkReferences": {}
}