{
  "_format": "hh-sol-artifact-1",
  "contractName": "RentalPayment",
  "sourceName": "contracts/RentalPayment.sol",
  "abi": [
    {
      "inputs": [
        {
          "internalType": "address",
          "name": "_mobifiWallet",
          "type": "address"
        },
        {
          "internalType": "address",
          "name": "_paymentToken",
          "type": "address"
        }
      ],
      "stateMutability": "nonpayable",
      "type": "constructor"
    },
    {
      "inputs": [],
      "name": "AccessControlBadConfirmation",
      "type": "error"
    },
    {
      "inputs": [
        {
          "internalType": "address",
          "name": "account",
          "type": "address"
        },
        {
          "internalType": "bytes32",
          "name": "neededRole",
          "type": "bytes32"
        }
      ],
      "name": "AccessControlUnauthorizedAccount",
      "type": "error"
    },
    {
      "anonymous": false,
      "inputs": [
        {
          "indexed": true,
          "internalType": "bytes32",
          "name": "role",
          "type": "bytes32"
        },
        {
          "indexed": true,
          "internalType": "bytes32",
          "name": "previousAdminRole",
          "type": "bytes32"
        },
        {
          "indexed": true,
          "internalType": "bytes32",
          "name": "newAdminRole",
          "type": "bytes32"
        }
      ],
      "name": "RoleAdminChanged",
      "type": "event"
    },
    {
      "anonymous": false,
      "inputs": [
        {
          "indexed": true,
          "internalType": "bytes32",
          "name": "role",
          "type": "bytes32"
        },
        {
          "indexed": true,
          "internalType": "address",
          "name": "account",
          "type": "address"
        },
        {
          "indexed": true,
          "internalType": "address",
          "name": "sender",
          "type": "address"
        }
      ],
      "name": "RoleGranted",
      "type": "event"
    },
    {
      "anonymous": false,
      "inputs": [
        {
          "indexed": true,
          "internalType": "bytes32",
          "name": "role",
          "type": "bytes32"
        },
        {
          "indexed": true,
          "internalType": "address",
          "name": "account",
          "type": "address"
        },
        {
          "indexed": true,
          "internalType": "address",
          "name": "sender",
          "type": "address"
        }
      ],
      "name": "RoleRevoked",
      "type": "event"
    },
    {
      "inputs": [],
      "name": "DEFAULT_ADMIN_ROLE",
      "outputs": [
        {
          "internalType": "bytes32",
          "name": "",
          "type": "bytes32"
        }
      ],
      "stateMutability": "view",
      "type": "function"
    },
    {
      "inputs": [
        {
          "internalType": "address",
          "name": "manager",
          "type": "address"
        }
      ],
      "name": "addManager",
      "outputs": [],
      "stateMutability": "nonpayable",
      "type": "function"
    },
    {
      "inputs": [],
      "name": "bookingCounter",
      "outputs": [
        {
          "internalType": "uint256",
          "name": "",
          "type": "uint256"
        }
      ],
      "stateMutability": "view",
      "type": "function"
    },
    {
      "inputs": [
        {
          "internalType": "uint256",
          "name": "",
          "type": "uint256"
        }
      ],
      "name": "bookings",
      "outputs": [
        {
          "internalType": "address",
          "name": "renter",
          "type": "address"
        },
        {
          "internalType": "address payable",
          "name": "owner",
          "type": "address"
        },
        {
          "internalType": "uint256",
          "name": "amount",
          "type": "uint256"
        },
        {
          "internalType": "uint256",
          "name": "endTime",
          "type": "uint256"
        },
        {
          "internalType": "bool",
          "name": "disputed",
          "type": "bool"
        },
        {
          "internalType": "bool",
          "name": "paid",
          "type": "bool"
        }
      ],
      "stateMutability": "view",
      "type": "function"
    },
    {
      "inputs": [
        {
          "internalType": "uint256",
          "name": "_newPercentage",
          "type": "uint256"
        }
      ],
      "name": "changeCommissionPercentage",
      "outputs": [],
      "stateMutability": "nonpayable",
      "type": "function"
    },
    {
      "inputs": [
        {
          "internalType": "address",
          "name": "_newMobifiWallet",
          "type": "address"
        }
      ],
      "name": "changeMobifiWallet",
      "outputs": [],
      "stateMutability": "nonpayable",
      "type": "function"
    },
    {
      "inputs": [],
      "name": "commissionPercentage",
      "outputs": [
        {
          "internalType": "uint256",
          "name": "",
          "type": "uint256"
        }
      ],
      "stateMutability": "view",
      "type": "function"
    },
    {
      "inputs": [
        {
          "internalType": "address payable",
          "name": "_owner",
          "type": "address"
        },
        {
          "internalType": "uint256",
          "name": "_amount",
          "type": "uint256"
        },
        {
          "internalType": "uint256",
          "name": "_endTime",
          "type": "uint256"
        }
      ],
      "name": "createBooking",
      "outputs": [],
      "stateMutability": "nonpayable",
      "type": "function"
    },
    {
      "inputs": [
        {
          "internalType": "bytes32",
          "name": "role",
          "type": "bytes32"
        }
      ],
      "name": "getRoleAdmin",
      "outputs": [
        {
          "internalType": "bytes32",
          "name": "",
          "type": "bytes32"
        }
      ],
      "stateMutability": "view",
      "type": "function"
    },
    {
      "inputs": [
        {
          "internalType": "bytes32",
          "name": "role",
          "type": "bytes32"
        },
        {
          "internalType": "address",
          "name": "account",
          "type": "address"
        }
      ],
      "name": "grantRole",
      "outputs": [],
      "stateMutability": "nonpayable",
      "type": "function"
    },
    {
      "inputs": [
        {
          "internalType": "bytes32",
          "name": "role",
          "type": "bytes32"
        },
        {
          "internalType": "address",
          "name": "account",
          "type": "address"
        }
      ],
      "name": "hasRole",
      "outputs": [
        {
          "internalType": "bool",
          "name": "",
          "type": "bool"
        }
      ],
      "stateMutability": "view",
      "type": "function"
    },
    {
      "inputs": [],
      "name": "mobifiWallet",
      "outputs": [
        {
          "internalType": "address",
          "name": "",
          "type": "address"
        }
      ],
      "stateMutability": "view",
      "type": "function"
    },
    {
      "inputs": [],
      "name": "paymentToken",
      "outputs": [
        {
          "internalType": "contract IERC20",
          "name": "",
          "type": "address"
        }
      ],
      "stateMutability": "view",
      "type": "function"
    },
    {
      "inputs": [
        {
          "internalType": "uint256",
          "name": "_bookingId",
          "type": "uint256"
        }
      ],
      "name": "raiseDispute",
      "outputs": [],
      "stateMutability": "nonpayable",
      "type": "function"
    },
    {
      "inputs": [
        {
          "internalType": "uint256",
          "name": "_bookingId",
          "type": "uint256"
        }
      ],
      "name": "releasePayment",
      "outputs": [],
      "stateMutability": "nonpayable",
      "type": "function"
    },
    {
      "inputs": [
        {
          "internalType": "address",
          "name": "manager",
          "type": "address"
        }
      ],
      "name": "removeManager",
      "outputs": [],
      "stateMutability": "nonpayable",
      "type": "function"
    },
    {
      "inputs": [
        {
          "internalType": "bytes32",
          "name": "role",
          "type": "bytes32"
        },
        {
          "internalType": "address",
          "name": "callerConfirmation",
          "type": "address"
        }
      ],
      "name": "renounceRole",
      "outputs": [],
      "stateMutability": "nonpayable",
      "type": "function"
    },
    {
      "inputs": [
        {
          "internalType": "uint256",
          "name": "_bookingId",
          "type": "uint256"
        },
        {
          "internalType": "bool",
          "name": "favorRenter",
          "type": "bool"
        }
      ],
      "name": "resolveDispute",
      "outputs": [],
      "stateMutability": "nonpayable",
      "type": "function"
    },
    {
      "inputs": [
        {
          "internalType": "bytes32",
          "name": "role",
          "type": "bytes32"
        },
        {
          "internalType": "address",
          "name": "account",
          "type": "address"
        }
      ],
      "name": "revokeRole",
      "outputs": [],
      "stateMutability": "nonpayable",
      "type": "function"
    },
    {
      "inputs": [
        {
          "internalType": "bytes4",
          "name": "interfaceId",
          "type": "bytes4"
        }
      ],
      "name": "supportsInterface",
      "outputs": [
        {
          "internalType": "bool",
          "name": "",
          "type": "bool"
        }
      ],
      "stateMutability": "view",
      "type": "function"
    }
  ],
  "bytecode": "0x608060405260056002553480156200001657600080fd5b50604051620026a5380380620026a583398181016040528101906200003c9190620002bb565b81600160006101000a81548173ffffffffffffffffffffffffffffffffffffffff021916908373ffffffffffffffffffffffffffffffffffffffff16021790555080600360006101000a81548173ffffffffffffffffffffffffffffffffffffffff021916908373ffffffffffffffffffffffffffffffffffffffff160217905550620000d36000801b33620000dc60201b60201c565b50505062000302565b6000620000f08383620001df60201b60201c565b620001d457600160008085815260200190815260200160002060000160008473ffffffffffffffffffffffffffffffffffffffff1673ffffffffffffffffffffffffffffffffffffffff16815260200190815260200160002060006101000a81548160ff021916908315150217905550620001706200024960201b60201c565b73ffffffffffffffffffffffffffffffffffffffff168273ffffffffffffffffffffffffffffffffffffffff16847f2f8788117e7eff1d82e926ec794901d17c78024a50270940304540a733656f0d60405160405180910390a460019050620001d9565b600090505b92915050565b600080600084815260200190815260200160002060000160008373ffffffffffffffffffffffffffffffffffffffff1673ffffffffffffffffffffffffffffffffffffffff16815260200190815260200160002060009054906101000a900460ff16905092915050565b600033905090565b600080fd5b600073ffffffffffffffffffffffffffffffffffffffff82169050919050565b6000620002838262000256565b9050919050565b620002958162000276565b8114620002a157600080fd5b50565b600081519050620002b5816200028a565b92915050565b60008060408385031215620002d557620002d462000251565b5b6000620002e585828601620002a4565b9250506020620002f885828601620002a4565b9150509250929050565b61239380620003126000396000f3fe608060405234801561001057600080fd5b506004361061012c5760003560e01c806391d14854116100ad578063b5991fa111610071578063b5991fa114610330578063d065c7401461034c578063d287ac4214610368578063d547741f14610386578063d575fe64146103a25761012c565b806391d148541461028e57806396c568a1146102be578063a217fddf146102da578063a5c1674e146102f8578063ac18de43146103145761012c565b80633013ce29116100f45780633013ce29146101fe57806334b25ee21461021c57806336568abe146102385780636374bd271461025457806388685cd9146102725761012c565b806301ffc9a7146101315780631dab301e14610161578063248a9ca3146101965780632d06177a146101c65780632f2ff15d146101e2575b600080fd5b61014b60048036038101906101469190611629565b6103c0565b6040516101589190611671565b60405180910390f35b61017b600480360381019061017691906116c2565b61043a565b60405161018d96959493929190611760565b60405180910390f35b6101b060048036038101906101ab91906117f7565b6104d0565b6040516101bd9190611833565b60405180910390f35b6101e060048036038101906101db919061187a565b6104ef565b005b6101fc60048036038101906101f791906118a7565b610568565b005b61020661058a565b6040516102139190611946565b60405180910390f35b6102366004803603810190610231919061198d565b6105b0565b005b610252600480360381019061024d91906118a7565b6107ce565b005b61025c610849565b60405161026991906119cd565b60405180910390f35b61028c600480360381019061028791906116c2565b61086f565b005b6102a860048036038101906102a391906118a7565b610b38565b6040516102b59190611671565b60405180910390f35b6102d860048036038101906102d39190611a14565b610ba2565b005b6102e2610f6f565b6040516102ef9190611833565b60405180910390f35b610312600480360381019061030d91906116c2565b610f76565b005b61032e6004803603810190610329919061187a565b611141565b005b61034a600480360381019061034591906116c2565b6111ba565b005b6103666004803603810190610361919061187a565b611254565b005b6103706112e4565b60405161037d9190611a67565b60405180910390f35b6103a0600480360381019061039b91906118a7565b6112ea565b005b6103aa61130c565b6040516103b79190611a67565b60405180910390f35b60007f7965db0b000000000000000000000000000000000000000000000000000000007bffffffffffffffffffffffffffffffffffffffffffffffffffffffff1916827bffffffffffffffffffffffffffffffffffffffffffffffffffffffff19161480610433575061043282611312565b5b9050919050565b60046020528060005260406000206000915090508060000160009054906101000a900473ffffffffffffffffffffffffffffffffffffffff16908060010160009054906101000a900473ffffffffffffffffffffffffffffffffffffffff16908060020154908060030154908060040160009054906101000a900460ff16908060040160019054906101000a900460ff16905086565b6000806000838152602001908152602001600020600101549050919050565b6104fc6000801b33610b38565b61053b576040517f08c379a000000000000000000000000000000000000000000000000000000000815260040161053290611adf565b60405180910390fd5b6105657f241ecf16d79d0f8dbfb92cbc07fe17840425976cf0667f022fe9877caa831b0882610568565b50565b610571826104d0565b61057a8161137c565b6105848383611390565b50505050565b600360009054906101000a900473ffffffffffffffffffffffffffffffffffffffff1681565b6105da7f241ecf16d79d0f8dbfb92cbc07fe17840425976cf0667f022fe9877caa831b0833610b38565b610619576040517f08c379a000000000000000000000000000000000000000000000000000000000815260040161061090611b4b565b60405180910390fd5b60006004600084815260200190815260200160002090508060040160009054906101000a900460ff16610681576040517f08c379a000000000000000000000000000000000000000000000000000000000815260040161067890611bb7565b60405180910390fd5b81156107ac57600360009054906101000a900473ffffffffffffffffffffffffffffffffffffffff1673ffffffffffffffffffffffffffffffffffffffff1663a9059cbb8260000160009054906101000a900473ffffffffffffffffffffffffffffffffffffffff1683600201546040518363ffffffff1660e01b815260040161070c929190611bd7565b6020604051808303816000875af115801561072b573d6000803e3d6000fd5b505050506040513d601f19601f8201168201806040525081019061074f9190611c15565b61078e576040517f08c379a000000000000000000000000000000000000000000000000000000000815260040161078590611c8e565b60405180910390fd5b60018160040160016101000a81548160ff0219169083151502179055505b60008160040160006101000a81548160ff021916908315150217905550505050565b6107d6611481565b73ffffffffffffffffffffffffffffffffffffffff168173ffffffffffffffffffffffffffffffffffffffff161461083a576040517f6697b23200000000000000000000000000000000000000000000000000000000815260040160405180910390fd5b6108448282611489565b505050565b600160009054906101000a900473ffffffffffffffffffffffffffffffffffffffff1681565b60006004600083815260200190815260200160002090503373ffffffffffffffffffffffffffffffffffffffff168160010160009054906101000a900473ffffffffffffffffffffffffffffffffffffffff1673ffffffffffffffffffffffffffffffffffffffff1614610918576040517f08c379a000000000000000000000000000000000000000000000000000000000815260040161090f90611cfa565b60405180910390fd5b62093a80816003015461092b9190611d49565b421161096c576040517f08c379a000000000000000000000000000000000000000000000000000000000815260040161096390611dc9565b60405180910390fd5b8060040160009054906101000a900460ff16156109be576040517f08c379a00000000000000000000000000000000000000000000000000000000081526004016109b590611e35565b60405180910390fd5b8060040160019054906101000a900460ff1615610a10576040517f08c379a0000000000000000000000000000000000000000000000000000000008152600401610a0790611ea1565b60405180910390fd5b60018160040160016101000a81548160ff021916908315150217905550600360009054906101000a900473ffffffffffffffffffffffffffffffffffffffff1673ffffffffffffffffffffffffffffffffffffffff1663a9059cbb8260010160009054906101000a900473ffffffffffffffffffffffffffffffffffffffff1683600201546040518363ffffffff1660e01b8152600401610ab2929190611ee2565b6020604051808303816000875af1158015610ad1573d6000803e3d6000fd5b505050506040513d601f19601f82011682018060405250810190610af59190611c15565b610b34576040517f08c379a0000000000000000000000000000000000000000000000000000000008152600401610b2b90611f57565b60405180910390fd5b5050565b600080600084815260200190815260200160002060000160008373ffffffffffffffffffffffffffffffffffffffff1673ffffffffffffffffffffffffffffffffffffffff16815260200190815260200160002060009054906101000a900460ff16905092915050565b60008211610be5576040517f08c379a0000000000000000000000000000000000000000000000000000000008152600401610bdc90611fc3565b60405180910390fd5b600060056000815480929190610bfa90611fe3565b9190505590506000606460025485610c12919061202b565b610c1c919061209c565b905060008185610c2c91906120cd565b90506040518060c001604052803373ffffffffffffffffffffffffffffffffffffffff1681526020018773ffffffffffffffffffffffffffffffffffffffff168152602001828152602001858152602001600015158152602001600015158152506004600085815260200190815260200160002060008201518160000160006101000a81548173ffffffffffffffffffffffffffffffffffffffff021916908373ffffffffffffffffffffffffffffffffffffffff16021790555060208201518160010160006101000a81548173ffffffffffffffffffffffffffffffffffffffff021916908373ffffffffffffffffffffffffffffffffffffffff160217905550604082015181600201556060820151816003015560808201518160040160006101000a81548160ff02191690831515021790555060a08201518160040160016101000a81548160ff021916908315150217905550905050600360009054906101000a900473ffffffffffffffffffffffffffffffffffffffff1673ffffffffffffffffffffffffffffffffffffffff166323b872dd3330886040518463ffffffff1660e01b8152600401610de493929190612101565b6020604051808303816000875af1158015610e03573d6000803e3d6000fd5b505050506040513d601f19601f82011682018060405250810190610e279190611c15565b610e66576040517f08c379a0000000000000000000000000000000000000000000000000000000008152600401610e5d90611f57565b60405180910390fd5b600360009054906101000a900473ffffffffffffffffffffffffffffffffffffffff1673ffffffffffffffffffffffffffffffffffffffff1663a9059cbb600160009054906101000a900473ffffffffffffffffffffffffffffffffffffffff16846040518363ffffffff1660e01b8152600401610ee5929190611bd7565b6020604051808303816000875af1158015610f04573d6000803e3d6000fd5b505050506040513d601f19601f82011682018060405250810190610f289190611c15565b610f67576040517f08c379a0000000000000000000000000000000000000000000000000000000008152600401610f5e90612184565b60405180910390fd5b505050505050565b6000801b81565b60006004600083815260200190815260200160002090508060000160009054906101000a900473ffffffffffffffffffffffffffffffffffffffff1673ffffffffffffffffffffffffffffffffffffffff163373ffffffffffffffffffffffffffffffffffffffff16148061103a57508060010160009054906101000a900473ffffffffffffffffffffffffffffffffffffffff1673ffffffffffffffffffffffffffffffffffffffff163373ffffffffffffffffffffffffffffffffffffffff16145b611079576040517f08c379a000000000000000000000000000000000000000000000000000000000815260040161107090612216565b60405180910390fd5b62093a80816003015461108c9190611d49565b4211156110ce576040517f08c379a00000000000000000000000000000000000000000000000000000000081526004016110c590612282565b60405180910390fd5b8060040160019054906101000a900460ff1615611120576040517f08c379a000000000000000000000000000000000000000000000000000000000815260040161111790611ea1565b60405180910390fd5b60018160040160006101000a81548160ff0219169083151502179055505050565b61114e6000801b33610b38565b61118d576040517f08c379a000000000000000000000000000000000000000000000000000000000815260040161118490611adf565b60405180910390fd5b6111b77f241ecf16d79d0f8dbfb92cbc07fe17840425976cf0667f022fe9877caa831b08826112ea565b50565b6111c76000801b33610b38565b611206576040517f08c379a00000000000000000000000000000000000000000000000000000000081526004016111fd90611adf565b60405180910390fd5b606481111561124a576040517f08c379a000000000000000000000000000000000000000000000000000000000815260040161124190612314565b60405180910390fd5b8060028190555050565b6112616000801b33610b38565b6112a0576040517f08c379a000000000000000000000000000000000000000000000000000000000815260040161129790611adf565b60405180910390fd5b80600160006101000a81548173ffffffffffffffffffffffffffffffffffffffff021916908373ffffffffffffffffffffffffffffffffffffffff16021790555050565b60055481565b6112f3826104d0565b6112fc8161137c565b6113068383611489565b50505050565b60025481565b60007f01ffc9a7000000000000000000000000000000000000000000000000000000007bffffffffffffffffffffffffffffffffffffffffffffffffffffffff1916827bffffffffffffffffffffffffffffffffffffffffffffffffffffffff1916149050919050565b61138d81611388611481565b61157b565b50565b600061139c8383610b38565b61147657600160008085815260200190815260200160002060000160008473ffffffffffffffffffffffffffffffffffffffff1673ffffffffffffffffffffffffffffffffffffffff16815260200190815260200160002060006101000a81548160ff021916908315150217905550611413611481565b73ffffffffffffffffffffffffffffffffffffffff168273ffffffffffffffffffffffffffffffffffffffff16847f2f8788117e7eff1d82e926ec794901d17c78024a50270940304540a733656f0d60405160405180910390a46001905061147b565b600090505b92915050565b600033905090565b60006114958383610b38565b1561157057600080600085815260200190815260200160002060000160008473ffffffffffffffffffffffffffffffffffffffff1673ffffffffffffffffffffffffffffffffffffffff16815260200190815260200160002060006101000a81548160ff02191690831515021790555061150d611481565b73ffffffffffffffffffffffffffffffffffffffff168273ffffffffffffffffffffffffffffffffffffffff16847ff6391f5c32d9c69d2a47ea670b442974b53935d1edc7fd64eb21e047a839171b60405160405180910390a460019050611575565b600090505b92915050565b6115858282610b38565b6115c85780826040517fe2517d3f0000000000000000000000000000000000000000000000000000000081526004016115bf929190612334565b60405180910390fd5b5050565b600080fd5b60007fffffffff0000000000000000000000000000000000000000000000000000000082169050919050565b611606816115d1565b811461161157600080fd5b50565b600081359050611623816115fd565b92915050565b60006020828403121561163f5761163e6115cc565b5b600061164d84828501611614565b91505092915050565b60008115159050919050565b61166b81611656565b82525050565b60006020820190506116866000830184611662565b92915050565b6000819050919050565b61169f8161168c565b81146116aa57600080fd5b50565b6000813590506116bc81611696565b92915050565b6000602082840312156116d8576116d76115cc565b5b60006116e6848285016116ad565b91505092915050565b600073ffffffffffffffffffffffffffffffffffffffff82169050919050565b600061171a826116ef565b9050919050565b61172a8161170f565b82525050565b600061173b826116ef565b9050919050565b61174b81611730565b82525050565b61175a8161168c565b82525050565b600060c0820190506117756000830189611721565b6117826020830188611742565b61178f6040830187611751565b61179c6060830186611751565b6117a96080830185611662565b6117b660a0830184611662565b979650505050505050565b6000819050919050565b6117d4816117c1565b81146117df57600080fd5b50565b6000813590506117f1816117cb565b92915050565b60006020828403121561180d5761180c6115cc565b5b600061181b848285016117e2565b91505092915050565b61182d816117c1565b82525050565b60006020820190506118486000830184611824565b92915050565b6118578161170f565b811461186257600080fd5b50565b6000813590506118748161184e565b92915050565b6000602082840312156118905761188f6115cc565b5b600061189e84828501611865565b91505092915050565b600080604083850312156118be576118bd6115cc565b5b60006118cc858286016117e2565b92505060206118dd85828601611865565b9150509250929050565b6000819050919050565b600061190c611907611902846116ef565b6118e7565b6116ef565b9050919050565b600061191e826118f1565b9050919050565b600061193082611913565b9050919050565b61194081611925565b82525050565b600060208201905061195b6000830184611937565b92915050565b61196a81611656565b811461197557600080fd5b50565b60008135905061198781611961565b92915050565b600080604083850312156119a4576119a36115cc565b5b60006119b2858286016116ad565b92505060206119c385828601611978565b9150509250929050565b60006020820190506119e26000830184611721565b92915050565b6119f181611730565b81146119fc57600080fd5b50565b600081359050611a0e816119e8565b92915050565b600080600060608486031215611a2d57611a2c6115cc565b5b6000611a3b868287016119ff565b9350506020611a4c868287016116ad565b9250506040611a5d868287016116ad565b9150509250925092565b6000602082019050611a7c6000830184611751565b92915050565b600082825260208201905092915050565b7f43616c6c6572206973206e6f7420616e2061646d696e00000000000000000000600082015250565b6000611ac9601683611a82565b9150611ad482611a93565b602082019050919050565b60006020820190508181036000830152611af881611abc565b9050919050565b7f43616c6c6572206973206e6f742061206d616e61676572000000000000000000600082015250565b6000611b35601783611a82565b9150611b4082611aff565b602082019050919050565b60006020820190508181036000830152611b6481611b28565b9050919050565b7f4e6f206469737075746520726169736564000000000000000000000000000000600082015250565b6000611ba1601183611a82565b9150611bac82611b6b565b602082019050919050565b60006020820190508181036000830152611bd081611b94565b9050919050565b6000604082019050611bec6000830185611721565b611bf96020830184611751565b9392505050565b600081519050611c0f81611961565b92915050565b600060208284031215611c2b57611c2a6115cc565b5b6000611c3984828501611c00565b91505092915050565b7f5472616e7366657220746f2072656e746572206661696c656400000000000000600082015250565b6000611c78601983611a82565b9150611c8382611c42565b602082019050919050565b60006020820190508181036000830152611ca781611c6b565b9050919050565b7f43616c6c6572206973206e6f7420616e206f776e657200000000000000000000600082015250565b6000611ce4601683611a82565b9150611cef82611cae565b602082019050919050565b60006020820190508181036000830152611d1381611cd7565b9050919050565b7f4e487b7100000000000000000000000000000000000000000000000000000000600052601160045260246000fd5b6000611d548261168c565b9150611d5f8361168c565b9250828201905080821115611d7757611d76611d1a565b5b92915050565b7f4469737075746520706572696f64206e6f7420656e6465640000000000000000600082015250565b6000611db3601883611a82565b9150611dbe82611d7d565b602082019050919050565b60006020820190508181036000830152611de281611da6565b9050919050565b7f4469737075746520726169736564000000000000000000000000000000000000600082015250565b6000611e1f600e83611a82565b9150611e2a82611de9565b602082019050919050565b60006020820190508181036000830152611e4e81611e12565b9050919050565b7f5061796d656e7420616c72656164792072656c65617365640000000000000000600082015250565b6000611e8b601883611a82565b9150611e9682611e55565b602082019050919050565b60006020820190508181036000830152611eba81611e7e565b9050919050565b6000611ecc82611913565b9050919050565b611edc81611ec1565b82525050565b6000604082019050611ef76000830185611ed3565b611f046020830184611751565b9392505050565b7f5472616e73666572206661696c65640000000000000000000000000000000000600082015250565b6000611f41600f83611a82565b9150611f4c82611f0b565b602082019050919050565b60006020820190508181036000830152611f7081611f34565b9050919050565b7f5061796d656e74206d7573742062652067726561746572207468616e20300000600082015250565b6000611fad601e83611a82565b9150611fb882611f77565b602082019050919050565b60006020820190508181036000830152611fdc81611fa0565b9050919050565b6000611fee8261168c565b91507fffffffffffffffffffffffffffffffffffffffffffffffffffffffffffffffff82036120205761201f611d1a565b5b600182019050919050565b60006120368261168c565b91506120418361168c565b925082820261204f8161168c565b9150828204841483151761206657612065611d1a565b5b5092915050565b7f4e487b7100000000000000000000000000000000000000000000000000000000600052601260045260246000fd5b60006120a78261168c565b91506120b28361168c565b9250826120c2576120c161206d565b5b828204905092915050565b60006120d88261168c565b91506120e38361168c565b92508282039050818111156120fb576120fa611d1a565b5b92915050565b60006060820190506121166000830186611721565b6121236020830185611721565b6121306040830184611751565b949350505050565b7f436f6d6d697373696f6e207472616e73666572206661696c6564000000000000600082015250565b600061216e601a83611a82565b915061217982612138565b602082019050919050565b6000602082019050818103600083015261219d81612161565b9050919050565b7f4e6f7420617574686f72697a656420746f20726169736520612064697370757460008201527f6500000000000000000000000000000000000000000000000000000000000000602082015250565b6000612200602183611a82565b915061220b826121a4565b604082019050919050565b6000602082019050818103600083015261222f816121f3565b9050919050565b7f4469737075746520706572696f642068617320656e6465640000000000000000600082015250565b600061226c601883611a82565b915061227782612236565b602082019050919050565b6000602082019050818103600083015261229b8161225f565b9050919050565b7f436f6d6d697373696f6e2070657263656e746167652063616e6e6f742065786360008201527f6565642031303000000000000000000000000000000000000000000000000000602082015250565b60006122fe602783611a82565b9150612309826122a2565b604082019050919050565b6000602082019050818103600083015261232d816122f1565b9050919050565b60006040820190506123496000830185611721565b6123566020830184611824565b939250505056fea2646970667358221220ffc9508137004f27b8f7ec9cac7dabef24e5575052049ed04a9cc17206c5ef0f64736f6c63430008180033",
  "linkReferences": {},
  "deployedLinkReferences": {}
}